:1008AE00FFE5F08FF0120502900018AB25AA26A9DD
:1008BE00271204CAF58285F083FDAC83228FF012D5
:1008CE00050290002AAB25AA26A9271204CAFDAC60
:1008DE00F022AE0743901012183B5390EF5390F74F
:1008EE0012183B43901012183B5390EF221215F53D
:1008FE00AB25E527242AF9E43526FA12049FFFE5F5
:10090E00F022FFE5F08FF0120502AB29E52B241E35
:10091E00F9E4352AFA02049F54E0440C8FF01205D4
:10092E0002AB25AA26A92722AF35AE34AD33FC1271
:10093E00068A78191206B91205D9AB39AA38A93721
:10094E00A836227F0C1215F5AB25AA26A92722540C
:10095E008FFDE5F04EFEED4FFFEE8FF002050244E7
:10096E0002FFE5F08FF00205021215F5AB25E52723
:10097E00222418F9E43526FA02049FAB25AA26A9EB
:10098E00271204CAFFAEF0788DEEF6FC08EFF6FDE6
:10099E0022F538F537F536AB29E52B241822AB298D
:1009AE00AA2AA92BE52E852FF0120521E531FEE9A5
:1009BE0022E53B5407C4F8540FC868FFE4C454F052
:1009CE0048FE227F007EE27D047C0078151206B977
:1009DE00D3020679C3EF9BF535EE9AF534ED99F512
:1009EE0033EC98F5322275F000020521E4F5F002A1
:1009FE000521F9E43AFA02049FAB25E527242AF9EA
:100A0E00E43526FA02049F8FF0120502AB25AA26C2
:100A1E00A92790002A22E4FCFD78191206B90205D6
:100A2E004EE52C5401FEE52D780722547F8FF012EF
:050A3E000502AB2522BA
:08189300309103D38001C32250
:0618350012183B43901065
:0B183B00E4FFEFC3946450031F80F72C
:01184600227F
:1015F5001208E053067FE4FBEE30E70543902080B8
:10160500035390DFEE25E0FE1208EE0BBB08E9E47C
:10161500FBEC30E70543902080035390DFED25E098
:10162500FDEC33FC1208EE0BBB10E64390081208E4
:01163500EEC6
:011636002291
:1014C8001208E0430680E4FBEE30E70543902080F5
:1014D800035390DFEE25E0FE1208EE0BBB08E9127D
:1014E80008EE121835E4FBED25E0FDEC33FC5390D3
:1014F800EFE59030E5047F0180027F00EF6005434F
:10150800050180035305FE1218350BBB10D9439013
:08151800081208F4AF05AE044F
:0115200022A8
:100CEB0074FF75F0FA120502900002744075F064FF
:100CFB00120521900004749075F055120521900097
:100D0B0006742D75F00612052190000874B075F06D
:100D1B00BF12052190000A74B075F0BF1205219027
:100D2B00000CE475F02812052190000EE475F028F4
:100D3B0012052190001074FC75F00612052190002D
:100D4B0012748275F0301205219000147402F5F0C4
:100D5B0012052190001674DA1209F4900018742908
:100D6B0075F01812052190001A74C475F05A12050B
:100D7B002190001C741C1209F490001E743075F045
:100D8B001A12052190002074BB75F0A51205219055
:100D9B00002274E31209F4900024742A75F0801277
:100DAB0005219000261209FA9000281209FA9000EA
:100DBB002A1209FA90002C1209FA90002E7449128B
:100DCB0009F4900030740275F08112052190003205
:100DDB0074F075F00F1205219000341209FA90008F
:100DEB0036E475F00512052190003874C875F04093
:100DFB0012052190003A74101209F490003CE4752E
:050E0B00F005020521C5
:101798008B258A268927AB25E5272412F9E43526E7
:1017A8001209084480FE8FF0120502EE548F8FF064
:1017B80012050278191206E200000A2878191206A2
:0217C8009D2260
:0E06FB008F288E278D268C258B298A2A892B05
:10070900AB28AA27A926A8257F607E3D7D087C0005
:100719001205D98F3B753A01AC3A120896C004C04C
:1007290005C006C007AC3BE41201AFA804A905AA9D
:1007390006AB07D007D006D005D00412012C50070C
:10074900E53A14F53B8009053AE53AD3940540C8E2
:100759001209BF1209A512091E12095D1209BF1259
:10076900091812095DAC3B120896C004C005C00601
:10077900C007AF28AE27AD26AC25E41201A5D003EA
:10078900D002D001D0001200261201E3781512061A
:10079900D61209D1E4401675390412099F12091EAF
:1007A90054F3440812091054F344088014753902AB
:1007B90012099F12091E54F3440412091054F344F8
:1007C9000412096F78191206B9C000781512069D2E
:1007D900D0001209451205D98E2C8F2D120A241228
:1007E900094812054EC004C005C006C00778151295
:1007F900069DD003D002D001D0001209E278101270
:1008090009361205D98E2E8F2F120A241209481281
:10081900054EC004C005C006C007AF35AE34AD33C0
:10082900AC32781012068AD003D002D001D000125F
:1008390009E278081209361205D98E308F31120A69
:100849002FC333CE33CED8F9FF1209A512091E548E
:100859007FFD12096490001A1209AC241C120A00C7
:10086900FDED120966120A2FC333CE33CED8F9FF34
:10087900120918547FFD1209649000201209AC2452
:0D08890022120A00FDEDFFEE8FF0020502C5
:10089600E41201AF8F438E428D418C407F007E0073
:0808A6007D007C40120E1022BF
:061764008B258A2689276F
:10176A00E4FDFCD292D29612183B120A0712096DB6
:10177A00AB25AA26A92790002A1208D97F15121587
:0E178A00F5120A0754FDFFE5F08FF00205028C
:060F27008B258A268927B4
:100F2D00E9241E120A0054FC12096F90001E1208CB
:100F3D00D37F0F1209772410F9E43526FA12049F96
:100F4D00AEF05401120966EE447F12092A9000108A
:100F5D001208D97F081209772408120904120926EC
:100F6D009000081208D97F04120977240A12090487
:100F7D0012092690000A1208D97F05120977243C20
:100F8D00F9E43526FA12049F4404FFE5F012092A0C
:100F9D0090003C1208D97F1E1215F512092F9000F2
:100FAD00121208D97F091215F512092F9000061299
:100FBD0008D97F031208FB44801208CB7F15120855
:100FCD00FB54F71208CB7F1512097724161209046A
:100FDD00448012092A9000161208D97F0B12097746
:100FED002416120904548F4440FE8FF0120502EEB0
:100FFD0054F1440812092A9000161208D97F0B02E9
:02100D0015F5D7
:061637008B258A2689279D
:10163D00E4788DF608F6E9242C120A00440112090B
:10164D006F90002C1209897F161215F5AB25E52731
:10165D00242AF9E4352612090854EF8FF0120502F9
:0B166D0090002A1209897F150215F574
:06100F008B258A268927CB
:10101500E92410F9E43A12090844808FF012050218
:101025009000101208B97F081215F5AB25E52712B7
:10103500097F54FC1208AE7F0C1215F5AB25E52788
:10104500241E12098154FC12096D12095690001EC6
:101055001208BF7F0F1215F51209D1AB25E5274000
:101065002212097F54F344081208AE1209511204E2
:101075009F54F812096D12095612049F1208C2E412
:10108500FF800C12097F54F344041208AE7F0C1242
:1010950015F51208B612095190001A1208BF7F0DF6
:1010A50012095390001C1208BF7F0E1209539000BD
:1010B5001E1208BF7F0F1209539000201208BF7F30
:0F10C500101209539000221208BF7F110215F577
:061678008B258A2689275C
:10167E00E9240CF9E43A120908120A39E527240E76
:10168E00F9E43526120908120A39AA26A92790006C
:10169E000C1208D97F061215F5AB25AA26A927909C
:0A16AE00000E1208D97F070215F59F
:06172E008B258A268927A5
:10173400E9242AF9E43A1209084480120A15120825
:10174400D97F151215F5AB25E527242AF9E43526AA
:101754001209084440120A151208D97F150215F51A
:07189B007B007A00794F2267
:0813E9008F248E238D228C213C
:1013F1007FC07E277D097C00AB24AA23A922A821D6
:10140100D3120679500FE47F347E21FDFCA821C35D
:1014110012067950037F002212189B1217641218CA
:101421009B120CEB12189B121798AF24AE23AD221E
:10143100AC2112189B1206FB12189B120F271218CF
:101441009B12163712189B12100F12189B12167846
:0814510012189B12172E7F01F7
:011459002270
:04001D001218932200
:0718A20053D9BFE4F5D92280
:0D187900758840758920758E08758DCB220D
:0418B00075981022F5
:0D18860075A43175A53E75E10175E24022A3
:0418B40075B2822265
:0418B80075A890225D
:101847001218A21218791218B01218861218B402B8
:0218570018B8BF
:030000000212E801
:0C12E800787FE4F6D8FD7581BA02132F60
:10182200C2AF75FF8075EF028F828E8375B7A57583
:03183200B7F122E9
:10000300A2AF9201121822438F0175FF8075EF0290
:09001300EDF0538FFEA20192AF43
:01001C0022C1
:10185900A2AF9201C2AF8F828E83E493FFA201925D
:01186900AFCF
:01186A00225B
:1017EE00A2AF9201121822438F0375FF8075EF028C
:0917FE00E4F0538FFCA20192AF4C
:0118070022BE
:080A43008E288F298C2A8D2BCF
:100A4B00753202753300E53324FFFFE53234FFFEC8
:100A5B00EFF4FFEEF4FE5528F52CE5295FF52D2577
:100A6B0033CDE52C3532CD24FFF52FED34FFF52EAC
:100A7B00E529252BFDE528352A5EF530ED5FF531AF
:100A8B002533CFE5303532CF24FFCF34FFFEE52FB2
:100A9B006F7003E52E6E704FFF120B4EE42529FF8E
:100AAB00E528341AFEC3EF952DFFEE952CFEE52BB2
:100ABB002FF535E52A3EF534E529252BF537E528C5
:100ACB00352AF536C3E52F9529FFE52E9528FEC36C
:100ADB00EF952BFFEE952ACF2401F539E43F120B4E
:100AEB0097120BA8020B4A7F00120B4E120BA81287
:100AFB000B7B7F007E1A1217EEC3E52F9529CFE5EE
:100B0B002E9528CF2401CF3400FEC3E52B9FFFE5A4
:100B1B002A9EFEE42FF535EE341AF534E5312FF528
:100B2B0037E5303EF536C3E5339FF539E5329E1296
:100B3B000B97AF31AE301217EE853034853135124D
:020B4B000B7B22
:100B4D00227E1A1217EE75341A753500852C3685EE
:100B5D002D37C3E529952DF539E528952CF538ABBD
:100B6D0039FAAD37AC36AF35AE341215B222753613
:100B7D001A753700853238853339AB39AA38AD3718
:100B8D00AC36AF35AE341215B222F538AB39FAADFD
:100B9D0037AC36AF35AE341215B222AF2DAE2C12A6
:090BAD0017EE852C34852D35224C
:1017CA008E218F228B238A248925AD27AC26120AE3
:1017DA0043AB23AA24A92585262D85272EAF22AE21
:0417EA002102156B58
:0A156B008E288F298B2A8A2B892CE9
:1015750085282F852930E529252EFFE528352DFEDF
:10158500C3E5309FE52F9E5023AB2A052CE52CAAF9
:101595002B7002052B14F9120474FDAF30AE2F1217
:0C15A50000030530E53070CE052F80CA31
:0115B1002217
:0A1521008B218A2289238C248D255A
:10152B00E4F528F529C3E5299527E52895265029C3
:10153B00E5252529FFE5243528FE121859AB210591
:10154B0023E523AA227002052214F9EF12048D055C
:0F155B0029E52970D0052880CCAB21AA22A9232D
:01156A00225E
:0C15B2008E3A8F3B8C3C8D3D8A3E8B3F77
:1015BE00E4F540F541C3E541953FE540953E5026A3
:1015CE00E53D2541FFE53C3540FE121859AD07E5D6
:1015DE003B2541FFE53A3540FE1200030541E5414A
:0615EE0070D3054080CF20
:0115F40022D4
:0416F6008E088F09C2
:1016FA00E4F50FF510AE0FAF10E4FCFDAB0DAA0C2C
:10170A00A90BA80AD31206794019E5092510FFE5A5
:10171A0008350FFEAD0E1200030510E51070D60550
:03172A000F80D25B
:01172D002299
:020021001A4083
:0618A90004110000000024
:1016B800EB2FFFEA3EFEED39FDEC38FC784A1206C6
:1016C800D6784A02069D78A7762408764508765289
:1016D80008765208764F0876520822E624D0FFE4AE
:0E16E80034FFFEE4FCFD22E47B0AFAF9F8224E
:10180800EF4E6015E4FDFC0DBD00010CBC03F8BDF6
:09181800E8F5EF1F70EA1E80E7FD
:0118210022A4
:10145A0012184712186B7B007A007911900021E468
:10146A0093FC740193FD752600752704121521E477
:10147A00FFFEFDFCAB14AA13A912A811C312067928
:10148A00700B7514587513D7751202F5111214BC26
:10149A007F031210D4121198B2807FE87E031218CB
:1014AA000812001D40EF1214BC7FB87E0B121808F8
:0E14BA0080E3AF14AE13AD12AC111213E92291
:1010D400E4F524F523F522F52185142485132385CD
:1010E4001222851121EF14601414601814603B243B
:1010F4000360030211971216CE7631801D1216CEAC
:101104007632801678A776240876530876540876C3
:101114004608763A08764F08764B087621087623F7
:10112400E4788FF678907609806678A77624087636
:101134004608765208765108763A75250E74A72526
:1011440025F8E4F61525E525B40AF275250A1216E4
:10115400EFAF24AE23AD22AC211205D9EB2430FF2E
:1011640074A72525F8A607AF24AE23AD22AC21121F
:1011740016EF1205D98F248E238D228C211525E597
:1011840025B404CA78B67623E4788FF6789076107E
:031194004398027B
:011197002235
:10119800784A1206E200000000E4784EF6200003C8
:1011A80002124DC2007892E66453600302123408BA
:1011B800E66454707708E664467071784E76057870
:1011C8004A1206B9C000784EE62491F81216E3D008
:1011D800001216B81216EF12054E784A1206D67883
:1011E8004E06E6B40AD9784A1206B9C000789B12AE
:1011F80016E3D0001216B81213E9EF70047F0180CD
:10120800417F021210D4784A12069D8F148E138DD6
:10121800128C11900021E493FE740193FF7B007AF5
:101228000079117526007527040217CA7892E6B46A
:10123800470E08E6B4540908E6B446047F03800262
:05124800E4FF1210D4C8
:01124D00227E
:041A400000000000A2
:0E186B00E4788FF608F678A5F608F6C200229B
:0300230002137451
:0D137400C0E0C0D075D000C000C006C007AA
:10138100309842C298AF99EF24DD600D14701E7839
:1013910091762478A57601802C78A5E6FF2491F832
:1013A100762378A6A607187600D200801878A5E6DD
:1013B100FEC39414500B74912EF8A60778A50680ED
:1013C1000478A57600309915C299788FE6FFC30895
:0D13D10096500A74A72FF8E6F599788F065C
:0B13DE00D007D006D000D0D0D0E03205
:10002600EC4D6011E8497017ED33EC3304600DE4D4
:10003600FCFFFEFD22E933E8330470F802024F129A
:10004600021A58046009E4CC24815006285009029B
:100056000259284003020256C0E0EB4A7044B980B8
:1000660006D0E0FB020245EF4E701CBD8008EBFF98
:10007600EAFEE9FD80EBE98DF0A4FEE5F002010F52
:10008600E9CDF9EAFEEBFFEF89F0A4FCE5F0CE89B5
:10009600F0A42EFFE435F0CD89F0A42DFEE435F072
:1000A6008067EF4E7005BD80D780C3EF8BF0A4ACA0
:1000B600F0EE8BF0A42CFCE435F0F8EF8AF0A42CDB
:1000C600E5F038FCE433CB8DF0A42CFCE5F03BF8EE
:1000D600EE8AF0A42CFCE5F038F8E433CF89F0A4DE
:1000E6002CFCE5F038CF3400CE89F0A42FFFE5F0E4
:1000F6003EFEE433C98DF0A42EFEE5F039CD8AF03C
:10010600A42FFFE5F03EFEE43DFD33D0E0FB5007B3
:100116000BBB000F020259EC2CFCEF33FFEE33FE53
:06012600ED33FD02023181
:10012C0074F8CC6480CCC86480C8F58204604FC37A
:10013C00EB9FF5F0EA9E42F0E99D42F0E89C45F019
:10014C00603C501DE5825FFFE582D313CB5BCBF4A3
:10015C002B5582FB50280ABA002409B900200880CC
:10016C001DE5825BFBE582D313CF5FCFF4C3132F66
:10017C005582FF50090EBE00050DBD00010CC3EBEE
:10018C009FF5F0EA9E42F0E99D42F0E89C45F06054
:09019C0007CC4820E701B3EC2276
:1001A50075F020800E75F010800575F0087D007ED5
:1001B500007F003392D530D50312066BEC33401027
:1001C500EF33FFEE33FEED33FDEC33FCD5F0ED22DE
:0E01D500E5F0247EA2D513CC92E7CDCEFF221A
:1001E300EDD2E7CD33EC3392D524814006E4FFFE14
:1001F300FDFC22FCE4CFCECDCC24E0501174FF8073
:10020300EDC3CC13CCCD13CDCE13CECF13CF04700F
:07021300F030D5DE02066B9E
:100E10008F3F8E3E8D3D8C3CE4FFFE7D807C3FAB62
:100E20003FAA3EA93DA83C12012C7009AF3FAE3E3F
:100E3000AD3DAC3C22AF3FAE3EAD3DAC3C1202649A
:100E4000FBAF43AE42AD41AC40120264FFBF0108AC
:100E5000E4FFFE7D807C3F22EF64046022EB6404AB
:100E6000601DBB0127E4FFFEFDFCAB43AA42A94184
:100E7000A84012012C60084006E4FFFEFDFC22742D
:100E8000FFF543F542F541F540020F1EE4F544F548
:100E900045FFFEFDFCAB3FAA3EA93DA83C12012C3C
:100EA000504BAF43AE42AD41AC401201E38E448F94
:100EB00045AC44AD45EC1201AAC8ECC8C9EDC9CA9D
:100EC000EECACBEFCBAF43AE42AD41AC4012028194
:100ED000E4FBFAF9F812012C70A5AF3FAE3EAD3D30
:100EE000AC3C1203768F3F8E3E8D3D8C3CAF3FAEC7
:100EF0003EAD3DAC3C120BEAAB43AA42A941A8402F
:100F00001200261212868F438E428D418C40E54599
:100F100030E00B1203768F438E428D418C40AF43FD
:070F2000AE42AD41AC4022DE
:10021A00E9D2E7C933E833F892D5EDD2E7CD33EC2A
:07022A0033FC5002B2D522A3
:10023100EC30E7100FBF000C0EBE00080DBD00042E
:100241000BEB6014A2D5EB13FCED92E7FD2274FFDA
:10025100FCFDFEFF22E480F8A2D574FF13FC7D8033
:03026100E480EF47
:10026400ED33EC33601004700FED547F70057402AD
:0A02740092E0227404220422E42226
:10027E0002024FE86480F8E933E83360110460F05D
:10028E00ED33EC337009E8FCE9FDEAFEEBFF2204E6
:10029E0060DED3EB9FEA9EE99DE8C2E78CF0C2F7E1
:1002AE0095F0400CE8CCF8E9CDF9EACEFAEBCFFBAD
:1002BE0012021A85D0F05804700320D5B3E80470EA
:1002CE00075002B2D502025992D5EC0460F7E4CC85
:1002DE00C0E0C398F8603B94186008400DD0E0FB76
:1002EE00020231E4FBFAC9FC8028E830E406E4C9D6
:1002FE00FBE4CAFCE830E305E4C9CACBFCE85407CA
:10030E006010F8C3E913F9EA13FAEB13FBEC13FCD4
:10031E00D8F130F52FC3E49CFCEF9BFFEE9AFEED77
:10032E0099FDD0E0FBEF4E4D4C701222DB03020222
:10033E0056EC2CFCEF33FFEE33FEED33FDED30E7E4
:10034E00EB020231EF2BFFEE3AFEED39FDD0E0FB72
:10035E0050130BBB0003020259ED13FDEE13FEEF1B
:08036E0013FFEC13FC02023145
:10037600ED33EC33600A047003BD8004ECB2E7FC95
:010386002254
:10124E0033DA929E35B16011377FE5FE39218489FC
:10125E003AAEC3FF3C1D955B3D6358473E75FDF0AE
:10126E003F3172183F800000C2D502025902024F70
:10127E00BD80FA50F3020256ED33EC330460F17B7D
:10128E003B7AAA79B8783F120026ED33EC3392D52B
:10129E00247B5011A2D570DB500BED4480240450FA
:1012AE0004A2D580CEEFFBEEFAEDF9ECF81201E3D5
:1012BE00EFF582F404FC1201AF120285C082901287
:1012CE004E7409120436ED33CC33D0F092D525F09E
:0A12DE00A2D57001C313CC13FD224A
:100BB6003E9248DA3ECCCCCD3F2AAAAB400000009C
:100BC6003F8000003F9837F03FB504F33FD744FC21
:100BD6003E3172173EB172173F0515913EDE5BD965
:100BE600D2018002C201EDD2E7F8CD33EC330470B6
:100BF6000BBD800592D502025902024F40FBD31469
:100C060060F2F5F07C3FEE7A00C39496C8948B4070
:100C1600230AC89469C8941A401A0AC89468C894E2
:100C26001F40110AC8945AC89425400805F07A0056
:100C3600CDC2E7CDC0F08C468D478E488F49EA235A
:100C460023C0E024C6F582E4340BF5831206C612EF
:100C56000285ECC0E0EDC0E0EEC0E0EFC0E01206B9
:100C6600A9A846A947AA48AB49120281D0E0FBD001
:100C7600E0FAD0E0F9D0E0B2E7F812038A8C468DAC
:100C8600478E488F49900BB67403120427A846A9CD
:100C960047AA48AB49120026D0E0600F24D2F5825D
:100CA600E4340BF5831206C61202858C468D478EF8
:100CB600488F49D0E0C3947FFDE49400FC1201AA5A
:100CC6007B187A727931783F120026A846A947AA7E
:100CD60048AB4912028530010B7BD97A5B79DE7805
:050CE6003E1200262271
:10038700020259EC5D046005E85904700302024F4C
:1003970012021A580460F6EC4860F2EC7004FDFE95
:1003A700FF22C860DB2481C85009C3986002500649
:1003B7000202569850CAF582E9294B4A7005AB826A
:1003C70002024575F0007C1A7880C3EF9BEE9AED28
:1003D70099400DC3EF9BFFEE9AFEED99FDE842F0C1
:1003E700DC23ACF0D0E0FFD0E0FED0E0FDAB822014
:1003F700E7101BEB60BAEC2CFCEF33FFEE33FEED9E
:1004070033FD020231E803F830E705C0F075F0006C
:10041700EF2FFFEE33FEED33FD40B830E7C280AA81
:10042700C0E0EFFBEEFAEDF9ECF8120026D0E0F5AC
:10043700F0EFFBEEFAEDF9ECF81206A9A3A3A3A3DC
:10044700E8C0E0E9C0E0EAC0E0EBC0E0C0F01200BD
:10045700261206C6A3A3A3A3120285D0F0D0E0FB01
:0D046700D0E0FAD0E0F9D0E0F8D5F0D422D2
:1012F40002145AE493A3F8E493A34003F68001F2A2
:1013040008DFF48029E493A3F85407240CC8C333FA
:10131400C4540F4420C8834004F456800146F6DFC9
:10132400E4800B01020408102040809018A9E47E98
:10133400019360BCA3FF543F30E509541FFEE493BE
:10134400A360010ECF54C025E060A840B8E493A385
:10135400FAE493A3F8E493A3C8C582C8CAC583CAB0
:10136400F0A3C8C582C8CAC583CADFE9DEE780BE68
:0118AF000038
:10047400BB010689828A83E0225002E722BBFE0286
:09048400E32289828A83E49322B9
:10048D00BB010689828A83F0225002F722BBFE014E
:02049D00F32248
:10049F00BB010A89828A83E0F5F0A3E02250068728
:1004AF00F009E71922BBFE07E3F5F009E3192289EA
:0B04BF00828A83E493F5F0740193221D
:1004CA00BB0110E58229F582E5833AF583E0F5F070
:1004DA00A3E0225009E92582F886F008E622BBFE4D
:1004EA000AE92582F8E2F5F008E222E5832AF58393
:0804FA00E993F5F0A3E9932258
:10050200BB010A89828A83F0E5F0A3F0225006F744
:0F05120009A7F01922BBFE06F3E5F009F3192241
:10052100F8BB0111E58229F582E5833AF583E8F00C
:10053100E5F0A3F0225009E92582C8F608A6F022C9
:0D054100BBFE09E92582C8F2E5F008F222B0
:10054E00E88FF0A4CC8BF0A42CFCE98EF0A42CFC4C
:10055E008AF0EDA42CFCEA8EF0A4CDA8F08BF0A4CA
:10056E002DCC3825F0FDE98FF0A42CCD35F0FCEB29
:10057E008EF0A4FEA9F0EB8FF0A4CFC5F02ECD39EE
:0F058E00FEE43CFCEAA42DCE35F0FDE43CFC225B
:10059D0075F008758200EF2FFFEE33FECD33CDCC15
:1005AD0033CCC58233C5829BED9AEC99E582984098
:1005BD000CF582EE9BFEED9AFDEC99FC0FD5F0D675
:1005CD00E4CEFBE4CDFAE4CCF9A88222B800C1B99F
:1005DD000059BA002DEC8BF084CFCECDFCE5F0CBDD
:1005ED00F97818EF2FFFEE33FEED33FDEC33FCEB16
:1005FD0033FB10D703994004EB99FB0FD8E5E4F9D1
:10060D00FA227818EF2FFFEE33FEED33FDEC33FCBD
:10061D00C933C910D7059BE99A4007EC9BFCE99AB1
:10062D00F90FD8E0E4C9FAE4CCFB2275F010EF2FF6
:10063D00FFEE33FEED33FDCC33CCC833C810D707F6
:10064D009BEC9AE899400AED9BFDEC9AFCE899F831
:0E065D000FD5F0DAE4CDFBE4CCFAE4C8F922C4
:0E066B00C3E49FFFE49EFEE49DFDE49CFC22A0
:10067900EB9FF5F0EA9E42F0E99D42F0E89C45F0D7
:01068900224E
:10068A00E8600FEFC333FFEE33FEED33FDEC33FCCE
:03069A00D8F12272
:0C069D00E6FC08E6FD08E6FE08E6FF2289
:1006A900E493FC740193FD740293FE740393FF2297
:0D06B900E6FB08E6F908E6FA08E6CBF822B1
:1006C600E493F8740193F9740293FA740393FB228A
:0C06D600ECF608EDF608EEF608EFF62250
:1006E200D083D082E493F608740193F608740293DF
:0906F200F608740393F674047316
:00000001FF
