:1008BA00FFE5F08FF0120502900018AB25AA26A9D1
:1008CA00271204CAF58285F083FDAC83228FF012C9
:1008DA00050290002AAB25AA26A9271204CAFDAC54
:1008EA00F022AE074390101218545390EF5390F72A
:1008FA001218544390101218545390EF22FFE5F047
:10090A008FF0120502AB29E52B241EF9E4352AFAE9
:10091A0002049F12168DAB25E527242AF9E4352611
:10092A00FA12049FFFE5F02254E0440C8FF01205FE
:10093A0002AB25AA26A92722AF35AE34AD33FC1265
:10094A00068A78191206B91205D9AB39AA38A93715
:10095A00A836227F0C12168DAB25AA26A927225467
:10096A008FFDE5F04EFEED4FFFEE8FF002050244DB
:10097A0002FFE5F08FF002050212168DAB25E5277E
:10098A00222418F9E43526FA02049FAB25AA26A9DF
:10099A00271204CAFFAEF0788DEEF6FC08EFF6FDDA
:1009AA0022F538F537F536AB29E52B241822E53B35
:1009BA005407C4F8540FC868FFE4C454F048FE2230
:1009CA007F007EE27D047C0078151206B9D3020608
:1009DA0079C3EF9BF535EE9AF534ED99F533EC983A
:1009EA00F5322275F000020521E4F5F0020521E551
:1009FA002E852FF0120502E531FEAB29E52B22AB3D
:100A0A0025E527242AF9E43526FA02049F8FF012F5
:100A1A000502AB25AA26A92790002A22E4FCFD7824
:100A2A00191206B902054EE52C5401FEE52D780788
:0B0A3A0022547F8FF0120502AB252232
:0818AC00309103D38001C32237
:06184E0012185443901033
:0B185400E4FFEFC3946450031F80F713
:01185F002266
:10168D001208EC53067FE4FBEE30E7054390208013
:10169D00035390DFEE25E0FE1208FA0BBB08E9E4D8
:1016AD00FBEC30E70543902080035390DFED25E000
:1016BD00FDEC33FC1208FA0BBB10E6439008120840
:0116CD00FA22
:0116CE0022F9
:1014D2001208EC430680E4FBEE30E70543902080DF
:1014E200035390DFEE25E0FE1208FA0BBB08E91267
:1014F20008FA12184EE4FBED25E0FDEC33FC5390A4
:10150200EFE59030E5047F0180027F00EF60054344
:10151200050180035305FE12184E0BBB10D94390F0
:0815220008120900AF05AE0438
:01152A00229E
:100CED0074FF75F0FA120502900002744075F064FD
:100CFD00120521900004749075F055120521900095
:100D0D0006742D75F00612052190000874B075F06B
:100D1D00BF12052190000A74B075F0BF1205219025
:100D2D00000CE475F02812052190000EE475F028F2
:100D3D0012052190001074FC75F00612052190002B
:100D4D0012748275F0301205219000147402F5F0C2
:100D5D0012052190001674DA1209ED90001874290D
:100D6D0075F01812052190001A74C475F05A120509
:100D7D002190001C741C1209ED90001E743075F04A
:100D8D001A12052190002074BB75F0A51205219053
:100D9D00002274E31209ED900024742A75F080127C
:100DAD0005219000261209F39000281209F39000F6
:100DBD002A1209F390002C1209F390002E74491297
:100DCD0009ED900030740275F0811205219000320A
:100DDD0074F075F00F1205219000341209F3900094
:100DED0036E475F00512052190003874C875F04091
:100DFD0012052190003A74101209ED90003CE47533
:050E0D00F005020521C3
:1017B1008B258A268927AB25E5272412F9E43526CE
:1017C10012092A4480FE8FF0120502EE548F8FF029
:1017D10012050278191206E2000003E878191206D0
:0217E1009D2247
:0E06FB008F288E278D268C258B298A2A892B05
:10070900AB28AA27A926A8257F607E3D7D087C0005
:100719001205D98F3B753A01AC3A1208A2C004C040
:1007290005C006C007AC3BE41201AFA804A905AA9D
:1007390006AB07D007D006D005D00412012C50070C
:10074900E53A14F53B8009053AE53AD3940540C8E2
:100759001209B81209B11209151209691209B81258
:10076900090F120969AC3B1208A2C004C005C006F2
:10077900C007AF28AE27AD26AC25E41201A5D003EA
:10078900D002D001D0001200261201E3781512061A
:10079900D61209CAE440167539041209AB120915B3
:1007A90054F3440812090754F344088014753902B4
:1007B9001209AB12091554F3440412090754F344FE
:1007C9000412097B78191206B9C000781512069D22
:1007D900D0001209511205D98E2C8F2D120A26121A
:1007E900095412054EC004C005C006C00778151289
:1007F900069DD003D002D001D0001209DB78101277
:1008090009421205D98E2E8F2F120A261209541267
:10081900054EC004C005C006C007AF35AE34AD33C0
:10082900AC32781012068AD003D002D001D000125F
:1008390009DB78081209421205D98E308F31120A64
:1008490031C333CE33CED8F9FF1209B11209155489
:100859007FFD120970AB29E52B241A12091512091B
:10086900F9241C120915FDED120972120A31C3335C
:10087900CE33CED8F9FF12090F547FFD120970ABA0
:1008890029E52B24201209151209F9242212091528
:09089900FDEDFFEE8FF0020502F7
:1008A200E41201AF8F438E428D418C407F007E0067
:0808B2007D007C40120E1222B1
:06177D008B258A26892756
:10178300E4FDFCD292D296121854120A0912097976
:10179300AB25AA26A92790002A1208E57F15121661
:0E17A3008D120A0954FDFFE5F08FF0020502D9
:060F29008B258A268927B2
:100F2F00E9241EF9E43AFA12049F54FC12097B904B
:100F3F00001E1208DF7F0F1209832410F9E43526F3
:100F4F00FA12049FAEF05401120972EE447F120997
:100F5F00369000101208E57F081209832408120941
:100F6F00261209329000081208E57F041209832423
:100F7F000A12092612093290000A1208E57F05129B
:100F8F000983243CF9E43526FA12049F4404FFE553
:100F9F00F012093690003C1208E57F1E12168D12D2
:100FAF00093B9000121208E57F0912168D12093BBA
:100FBF009000061208E57F0312091D44801208D71E
:100FCF007F1512091D54F71208D77F1512098324B4
:100FDF001612092644801209369000161208E57F72
:100FEF000B1209832416120926548F4440FE8FF0EA
:100FFF00120502EE54F14408120936900016120839
:06100F00E57F0B02168DC7
:061605008B258A268927CF
:10160B00E4788DF608F6E9242CF9E43AFA12049FF3
:10161B00440112097B90002C1209957F1612168D2E
:10162B00AB25E527242AF9E4352612092A54EF8F36
:0F163B00F012050290002A1209957F1502168DF4
:0610DE008B258A268927FC
:1010E400E92410F9E43A12092A44808FF012050227
:1010F4009000101208C57F0812168DAB25E5271243
:10110400098B54FC1208BA7F0C12168DAB25E52707
:10111400241E12098D54FC12097912096290001ED2
:101124001208CB7F0F12168D1209CAAB25E5274092
:101134002212098B54F344081208BA12095D1204EE
:101144009F54F812097912096212049F1208CEE41E
:10115400FF800C12098B54F344041208BA7F0C125A
:10116400168D1208C212095D90001A1208CB7F0D69
:1011740012095F90001C1208CB7F0E12095F9000C9
:101184001E1208CB7F0F12095F9000201208CB7F3C
:0F1194001012095F9000221208CB7F1102168DF6
:0616CF008B258A26892705
:1016D500E9240CF9E43A12092A120A3BE527240EFB
:1016E500F9E4352612092A120A3BAA26A9279000F1
:1016F5000C1208E57F0612168DAB25AA26A92790A0
:0A170500000E1208E57F0702168DA2
:061747008B258A2689278C
:10174D00E9242AF9E43A12092A4480120A171208E8
:10175D00E57F1512168DAB25E527242AF9E43526EC
:10176D0012092A4440120A171208E57F1502168D38
:0718B4007B007A00794F224E
:0813FA008F248E238D228C212B
:101402007FB07E1E7D047C00AB24AA23A922A821E2
:10141200D3120679500FE47F347E21FDFCA821C34C
:1014220012067950037F00221218B412177D121887
:10143200B4120CED1218B41217B1AF24AE23AD22C0
:10144200AC211218B41206FB1218B4120F2912188A
:10145200B41216051218B41210DE1218B41216CFF6
:081462001218B41217477F01B4
:01146A00225F
:04001D001218AC22E7
:0718BB0053D9BFE4F5D92267
:0D189200758840758920758E08758DCB22F4
:0418C90075981022DC
:0D189F0075A43175A53E75E10175E240228A
:0418CD0075B282224C
:0418D10075A8902244
:101860001218BB1218921218C912189F1218CD0222
:0218700018D18D
:030000000212F9F0
:0C12F900787FE4F6D8FD7581BA0213403E
:10183B00C2AF75FF8075EF028F828E8375B7A5756A
:03184B00B7F122D0
:10000300A2AF920112183B438F0175FF8075EF0277
:09001300EDF0538FFEA20192AF43
:01001C0022C1
:10187200A2AF9201C2AF8F828E83E493FFA2019244
:01188200AFB6
:011883002242
:10180700A2AF920112183B438F0375FF8075EF0259
:09181700E4F0538FFCA20192AF32
:0118200022A5
:080A45008E288F298C2A8D2BCD
:100A4D00753202753300E53324FFFFE53234FFFEC6
:100A5D00EFF4FFEEF4FE5528F52CE5295FF52D2575
:100A6D0033CDE52C3532CD24FFF52FED34FFF52EAA
:100A7D00E529252BFDE528352A5EF530ED5FF531AD
:100A8D002533CFE5303532CF24FFCF34FFFEE52FB0
:100A9D006F7003E52E6E704FFF120B50E42529FF8A
:100AAD00E528341AFEC3EF952DFFEE952CFEE52BB0
:100ABD002FF535E52A3EF534E529252BF537E528C3
:100ACD00352AF536C3E52F9529FFE52E9528FEC36A
:100ADD00EF952BFFEE952ACF2401F539E43F120B4C
:100AED0099120BAA020B4C7F00120B50120BAA127B
:100AFD000B7D7F007E1A121807C3E52F9529CFE5D0
:100B0D002E9528CF2401CF3400FEC3E52B9FFFE5A2
:100B1D002A9EFEE42FF535EE341AF534E5312FF526
:100B2D0037E5303EF536C3E5339FF539E5329E1294
:100B3D000B99AF31AE30121807853034853135122F
:020B4D000B7D1E
:100B4F00227E1A12180775341A753500852C3685D2
:100B5F002D37C3E529952DF539E528952CF538ABBB
:100B6F0039FAAD37AC36AF35AE3412164A22753678
:100B7F001A753700853238853339AB39AA38AD3716
:100B8F00AC36AF35AE3412164A22F538AB39FAAD62
:100B9F0037AC36AF35AE3412164A22AF2DAE2C120B
:090BAF001807852C34852D352230
:1017E3008E218F228B238A248925AD27AC26120ACA
:1017F30045AB23AA24A92585262D85272EAF22AE06
:04180300210215BEEB
:0A15BE008E288F298B2A8A2B892C96
:1015C80085282F852930E529252EFFE528352DFE8C
:1015D800C3E5309FE52F9E5023AB2A052CE52CAAA6
:1015E8002B7002052B14F9120474FDAF30AE2F12C4
:0C15F80000030530E53070CE052F80CADE
:0116040022C3
:0A152B008B218A2289238C248D2550
:10153500E4F528F529C3E5299527E52895265029B9
:10154500E5252529FFE5243528FE121872AB21056E
:1015550023E523AA227002052214F9EF12048D0552
:0F15650029E52970D0052880CCAB21AA22A92323
:011574002254
:0C164A008E3A8F3B8C3C8D3D8A3E8B3FDE
:10165600E4F540F541C3E541953FE540953E50260A
:10166600E53D2541FFE53C3540FE121872AD07E524
:101676003B2541FFE53A3540FE1200030541E541B1
:0616860070D3054080CF87
:01168C00223B
:04170F008E088F09A8
:10171300E4F50FF510AE0FAF10E4FCFDAB0DAA0C12
:10172300A90BA80AD31206794019E5092510FFE58C
:1017330008350FFEAD0E1200030510E51070D60537
:031743000F80D242
:011746002280
:020021001A4083
:0618C2000411000000000B
:10157500EB2FFFEA3EFEED39FDEC38FC784A12060A
:10158500D6784A02069D78A77624087645087652CD
:1015950008765208764F0876520822E624D0FFE4F2
:1015A50034FFFEE4FCFD22FDFCAB14AA13A912A82E
:0915B5001122E47B0AFAF9F82284
:10182100EF4E6015E4FDFC0DBD00010CBC03F8BDDD
:09183100E8F5EF1F70EA1E80E7E4
:01183A00228B
:10146B001218601218847B007A007911900021E425
:10147B0093FC740193FD75260075270412152BE45C
:10148B00FFFE1215ACC3120679700B751458751349
:10149B00D7751202F5111214C67F031211A3121085
:1014AB0015B2807FE87E0312182112001D40EF1247
:1014BB0014C67FB87E0B12182180E3AF14AE13ADA8
:0714CB0012AC111213FA220A
:0211A3008F219A
:1011A500E4F525F524F523F5227F107E271215ACED
:1011B50012054E8F258E248D238C22E52114601473
:1011C50014601814603B2403600302125E12158B31
:1011D5007631801D12158B7632801678A776240815
:1011E500765308765408764608763A08764F087698
:1011F5004B087621087623E4788FF6789076098077
:101205005578A776240876460876520876510876EA
:101215003A75260E1215B7AF25AE24AD23AC2212B2
:1012250005D9EB2430FF74A72526F8A607AF25AE10
:1012350024AD23AC221215B71205D98F258E248D26
:10124500238C221526E526B404CA78B67623E478DD
:091255008FF678907610439802A0
:01125E00226D
:10101500784A1206E200000000E4784EF62000034C
:101025000210DDC2007892E6645360030210C40822
:10103500E6645460030210C408E6644660030210C7
:10104500C4784E7605784A1206B9C000784EE62473
:1010550091F81215A0D0001215751215B712054E8C
:10106500784A1206D6784E06E6B40ED9784A1206A4
:10107500B9C000789F1215A0D000121575E47B1039
:101085007A27F9F81205D91215811213FAEF7004AF
:101095007F0180417F021211A3784A12069D8F14A9
:1010A5008E138D128C11900021E493FE740193FF31
:1010B5007B007A0079117526007527040217E378FD
:1010C50092E6B4470E08E6B4540908E6B446047F30
:0810D500038002E4FF1211A3E5
:0110DD0022F0
:041A400000000000A2
:0E188400E4788FF608F678A5F608F6C2002282
:0300230002138540
:0D138500C0E0C0D075D000C000C006C00799
:10139200309842C298AF99EF24DD600D14701E7828
:1013A20091762478A57601802C78A5E6FF2491F821
:1013B200762378A6A607187600D200801878A5E6CC
:1013C200FEC39414500B74912EF8A60778A50680DC
:1013D2000478A57600309915C299788FE6FFC30884
:0D13E20096500A74A72FF8E6F599788F064B
:0B13EF00D007D006D000D0D0D0E032F4
:10002600EC4D6011E8497017ED33EC3304600DE4D4
:10003600FCFFFEFD22E933E8330470F802024F129A
:10004600021A58046009E4CC24815006285009029B
:100056000259284003020256C0E0EB4A7044B980B8
:1000660006D0E0FB020245EF4E701CBD8008EBFF98
:10007600EAFEE9FD80EBE98DF0A4FEE5F002010F52
:10008600E9CDF9EAFEEBFFEF89F0A4FCE5F0CE89B5
:10009600F0A42EFFE435F0CD89F0A42DFEE435F072
:1000A6008067EF4E7005BD80D780C3EF8BF0A4ACA0
:1000B600F0EE8BF0A42CFCE435F0F8EF8AF0A42CDB
:1000C600E5F038FCE433CB8DF0A42CFCE5F03BF8EE
:1000D600EE8AF0A42CFCE5F038F8E433CF89F0A4DE
:1000E6002CFCE5F038CF3400CE89F0A42FFFE5F0E4
:1000F6003EFEE433C98DF0A42EFEE5F039CD8AF03C
:10010600A42FFFE5F03EFEE43DFD33D0E0FB5007B3
:100116000BBB000F020259EC2CFCEF33FFEE33FE53
:06012600ED33FD02023181
:10012C0074F8CC6480CCC86480C8F58204604FC37A
:10013C00EB9FF5F0EA9E42F0E99D42F0E89C45F019
:10014C00603C501DE5825FFFE582D313CB5BCBF4A3
:10015C002B5582FB50280ABA002409B900200880CC
:10016C001DE5825BFBE582D313CF5FCFF4C3132F66
:10017C005582FF50090EBE00050DBD00010CC3EBEE
:10018C009FF5F0EA9E42F0E99D42F0E89C45F06054
:09019C0007CC4820E701B3EC2276
:1001A50075F020800E75F010800575F0087D007ED5
:1001B500007F003392D530D50312066BEC33401027
:1001C500EF33FFEE33FEED33FDEC33FCD5F0ED22DE
:0E01D500E5F0247EA2D513CC92E7CDCEFF221A
:1001E300EDD2E7CD33EC3392D524814006E4FFFE14
:1001F300FDFC22FCE4CFCECDCC24E0501174FF8073
:10020300EDC3CC13CCCD13CDCE13CECF13CF04700F
:07021300F030D5DE02066B9E
:100E12008F3F8E3E8D3D8C3CE4FFFE7D807C3FAB60
:100E22003FAA3EA93DA83C12012C7009AF3FAE3E3D
:100E3200AD3DAC3C22AF3FAE3EAD3DAC3C12026498
:100E4200FBAF43AE42AD41AC40120264FFBF0108AA
:100E5200E4FFFE7D807C3F22EF64046022EB6404A9
:100E6200601DBB0127E4FFFEFDFCAB43AA42A94182
:100E7200A84012012C60084006E4FFFEFDFC22742B
:100E8200FFF543F542F541F540020F20E4F544F544
:100E920045FFFEFDFCAB3FAA3EA93DA83C12012C3A
:100EA200504BAF43AE42AD41AC401201E38E448F92
:100EB20045AC44AD45EC1201AAC8ECC8C9EDC9CA9B
:100EC200EECACBEFCBAF43AE42AD41AC4012028192
:100ED200E4FBFAF9F812012C70A5AF3FAE3EAD3D2E
:100EE200AC3C1203768F3F8E3E8D3D8C3CAF3FAEC5
:100EF2003EAD3DAC3C120BECAB43AA42A941A8402B
:100F02001200261212978F438E428D418C40E54586
:100F120030E00B1203768F438E428D418C40AF43FB
:070F2200AE42AD41AC4022DC
:10021A00E9D2E7C933E833F892D5EDD2E7CD33EC2A
:07022A0033FC5002B2D522A3
:10023100EC30E7100FBF000C0EBE00080DBD00042E
:100241000BEB6014A2D5EB13FCED92E7FD2274FFDA
:10025100FCFDFEFF22E480F8A2D574FF13FC7D8033
:03026100E480EF47
:10026400ED33EC33601004700FED547F70057402AD
:0A02740092E0227404220422E42226
:10027E0002024FE86480F8E933E83360110460F05D
:10028E00ED33EC337009E8FCE9FDEAFEEBFF2204E6
:10029E0060DED3EB9FEA9EE99DE8C2E78CF0C2F7E1
:1002AE0095F0400CE8CCF8E9CDF9EACEFAEBCFFBAD
:1002BE0012021A85D0F05804700320D5B3E80470EA
:1002CE00075002B2D502025992D5EC0460F7E4CC85
:1002DE00C0E0C398F8603B94186008400DD0E0FB76
:1002EE00020231E4FBFAC9FC8028E830E406E4C9D6
:1002FE00FBE4CAFCE830E305E4C9CACBFCE85407CA
:10030E006010F8C3E913F9EA13FAEB13FBEC13FCD4
:10031E00D8F130F52FC3E49CFCEF9BFFEE9AFEED77
:10032E0099FDD0E0FBEF4E4D4C701222DB03020222
:10033E0056EC2CFCEF33FFEE33FEED33FDED30E7E4
:10034E00EB020231EF2BFFEE3AFEED39FDD0E0FB72
:10035E0050130BBB0003020259ED13FDEE13FEEF1B
:08036E0013FFEC13FC02023145
:10037600ED33EC33600A047003BD8004ECB2E7FC95
:010386002254
:10125F0033DA929E35B16011377FE5FE39218489EB
:10126F003AAEC3FF3C1D955B3D6358473E75FDF09D
:10127F003F3172183F800000C2D502025902024F5F
:10128F00BD80FA50F3020256ED33EC330460F17B6C
:10129F003B7AAA79B8783F120026ED33EC3392D51A
:1012AF00247B5011A2D570DB500BED4480240450E9
:1012BF0004A2D580CEEFFBEEFAEDF9ECF81201E3C4
:1012CF00EFF582F404FC1201AF120285C082901276
:1012DF005F7409120436ED33CC33D0F092D525F07C
:0A12EF00A2D57001C313CC13FD2239
:100BB8003E9248DA3ECCCCCD3F2AAAAB400000009A
:100BC8003F8000003F9837F03FB504F33FD744FC1F
:100BD8003E3172173EB172173F0515913EDE5BD963
:100BE800D2018002C201EDD2E7F8CD33EC330470B4
:100BF8000BBD800592D502025902024F40FBD31467
:100C080060F2F5F07C3FEE7A00C39496C8948B406E
:100C1800230AC89469C8941A401A0AC89468C894E0
:100C28001F40110AC8945AC89425400805F07A0054
:100C3800CDC2E7CDC0F08C468D478E488F49EA2358
:100C480023C0E024C8F582E4340BF5831206C612EB
:100C58000285ECC0E0EDC0E0EEC0E0EFC0E01206B7
:100C6800A9A846A947AA48AB49120281D0E0FBD0FF
:100C7800E0FAD0E0F9D0E0B2E7F812038A8C468DAA
:100C8800478E488F49900BB87403120427A846A9C9
:100C980047AA48AB49120026D0E0600F24D4F58259
:100CA800E4340BF5831206C61202858C468D478EF6
:100CB800488F49D0E0C3947FFDE49400FC1201AA58
:100CC8007B187A727931783F120026A846A947AA7C
:100CD80048AB4912028530010B7BD97A5B79DE7803
:050CE8003E120026226F
:10038700020259EC5D046005E85904700302024F4C
:1003970012021A580460F6EC4860F2EC7004FDFE95
:1003A700FF22C860DB2481C85009C3986002500649
:1003B7000202569850CAF582E9294B4A7005AB826A
:1003C70002024575F0007C1A7880C3EF9BEE9AED28
:1003D70099400DC3EF9BFFEE9AFEED99FDE842F0C1
:1003E700DC23ACF0D0E0FFD0E0FED0E0FDAB822014
:1003F700E7101BEB60BAEC2CFCEF33FFEE33FEED9E
:1004070033FD020231E803F830E705C0F075F0006C
:10041700EF2FFFEE33FEED33FD40B830E7C280AA81
:10042700C0E0EFFBEEFAEDF9ECF8120026D0E0F5AC
:10043700F0EFFBEEFAEDF9ECF81206A9A3A3A3A3DC
:10044700E8C0E0E9C0E0EAC0E0EBC0E0C0F01200BD
:10045700261206C6A3A3A3A3120285D0F0D0E0FB01
:0D046700D0E0FAD0E0F9D0E0F8D5F0D422D2
:1013050002146BE493A3F8E493A34003F68001F27F
:1013150008DFF48029E493A3F85407240CC8C333E9
:10132500C4540F4420C8834004F456800146F6DFB8
:10133500E4800B01020408102040809018C2E47E6E
:10134500019360BCA3FF543F30E509541FFEE493AD
:10135500A360010ECF54C025E060A840B8E493A374
:10136500FAE493A3F8E493A3C8C582C8CAC583CA9F
:10137500F0A3C8C582C8CAC583CADFE9DEE780BE57
:0118C800001F
:10047400BB010689828A83E0225002E722BBFE0286
:09048400E32289828A83E49322B9
:10048D00BB010689828A83F0225002F722BBFE014E
:02049D00F32248
:10049F00BB010A89828A83E0F5F0A3E02250068728
:1004AF00F009E71922BBFE07E3F5F009E3192289EA
:0B04BF00828A83E493F5F0740193221D
:1004CA00BB0110E58229F582E5833AF583E0F5F070
:1004DA00A3E0225009E92582F886F008E622BBFE4D
:1004EA000AE92582F8E2F5F008E222E5832AF58393
:0804FA00E993F5F0A3E9932258
:10050200BB010A89828A83F0E5F0A3F0225006F744
:0F05120009A7F01922BBFE06F3E5F009F3192241
:10052100F8BB0111E58229F582E5833AF583E8F00C
:10053100E5F0A3F0225009E92582C8F608A6F022C9
:0D054100BBFE09E92582C8F2E5F008F222B0
:10054E00E88FF0A4CC8BF0A42CFCE98EF0A42CFC4C
:10055E008AF0EDA42CFCEA8EF0A4CDA8F08BF0A4CA
:10056E002DCC3825F0FDE98FF0A42CCD35F0FCEB29
:10057E008EF0A4FEA9F0EB8FF0A4CFC5F02ECD39EE
:0F058E00FEE43CFCEAA42DCE35F0FDE43CFC225B
:10059D0075F008758200EF2FFFEE33FECD33CDCC15
:1005AD0033CCC58233C5829BED9AEC99E582984098
:1005BD000CF582EE9BFEED9AFDEC99FC0FD5F0D675
:1005CD00E4CEFBE4CDFAE4CCF9A88222B800C1B99F
:1005DD000059BA002DEC8BF084CFCECDFCE5F0CBDD
:1005ED00F97818EF2FFFEE33FEED33FDEC33FCEB16
:1005FD0033FB10D703994004EB99FB0FD8E5E4F9D1
:10060D00FA227818EF2FFFEE33FEED33FDEC33FCBD
:10061D00C933C910D7059BE99A4007EC9BFCE99AB1
:10062D00F90FD8E0E4C9FAE4CCFB2275F010EF2FF6
:10063D00FFEE33FEED33FDCC33CCC833C810D707F6
:10064D009BEC9AE899400AED9BFDEC9AFCE899F831
:0E065D000FD5F0DAE4CDFBE4CCFAE4C8F922C4
:0E066B00C3E49FFFE49EFEE49DFDE49CFC22A0
:10067900EB9FF5F0EA9E42F0E99D42F0E89C45F0D7
:01068900224E
:10068A00E8600FEFC333FFEE33FEED33FDEC33FCCE
:03069A00D8F12272
:0C069D00E6FC08E6FD08E6FE08E6FF2289
:1006A900E493FC740193FD740293FE740393FF2297
:0D06B900E6FB08E6F908E6FA08E6CBF822B1
:1006C600E493F8740193F9740293FA740393FB228A
:0C06D600ECF608EDF608EEF608EFF62250
:1006E200D083D082E493F608740193F608740293DF
:0906F200F608740393F674047316
:00000001FF
